{
  "contractName": "iii6VRFGoerli",
  "abi": [
    {
      "inputs": [
        {
          "internalType": "uint64",
          "name": "subscriptionId",
          "type": "uint64"
        }
      ],
      "stateMutability": "nonpayable",
      "type": "constructor"
    },
    {
      "inputs": [
        {
          "internalType": "address",
          "name": "have",
          "type": "address"
        },
        {
          "internalType": "address",
          "name": "want",
          "type": "address"
        }
      ],
      "name": "OnlyCoordinatorCanFulfill",
      "type": "error"
    },
    {
      "inputs": [
        {
          "internalType": "uint256",
          "name": "requestId",
          "type": "uint256"
        },
        {
          "internalType": "uint256[]",
          "name": "randomWords",
          "type": "uint256[]"
        }
      ],
      "name": "rawFulfillRandomWords",
      "outputs": [],
      "stateMutability": "nonpayable",
      "type": "function"
    },
    {
      "inputs": [],
      "name": "s_requestId",
      "outputs": [
        {
          "internalType": "uint256",
          "name": "",
          "type": "uint256"
        }
      ],
      "stateMutability": "view",
      "type": "function"
    },
    {
      "inputs": [
        {
          "internalType": "uint256",
          "name": "",
          "type": "uint256"
        }
      ],
      "name": "s_requestIdToAddress",
      "outputs": [
        {
          "internalType": "address",
          "name": "",
          "type": "address"
        }
      ],
      "stateMutability": "view",
      "type": "function"
    },
    {
      "inputs": [
        {
          "internalType": "uint256",
          "name": "",
          "type": "uint256"
        },
        {
          "internalType": "uint256",
          "name": "",
          "type": "uint256"
        }
      ],
      "name": "s_requestIdToRandomWords",
      "outputs": [
        {
          "internalType": "uint256",
          "name": "",
          "type": "uint256"
        }
      ],
      "stateMutability": "view",
      "type": "function"
    },
    {
      "inputs": [
        {
          "internalType": "uint256",
          "name": "_rid",
          "type": "uint256"
        }
      ],
      "name": "randy",
      "outputs": [
        {
          "internalType": "uint256[]",
          "name": "",
          "type": "uint256[]"
        }
      ],
      "stateMutability": "view",
      "type": "function"
    },
    {
      "inputs": [],
      "name": "requestRandomWords",
      "outputs": [
        {
          "internalType": "uint256",
          "name": "",
          "type": "uint256"
        }
      ],
      "stateMutability": "nonpayable",
      "type": "function"
    }
  ],
  "bytecode": "0x60a0604052732ca8e0c643bde4c2e08ab1fa0da3401adad7734d600660006101000a81548173ffffffffffffffffffffffffffffffffffffffff021916908373ffffffffffffffffffffffffffffffffffffffff1602179055507f79d3d8832d904592c0bf9818b621522c988bb8b0c05cdc3b15aea1b6e8db0c1560001b60075534801561008c57600080fd5b50604051610c4a380380610c4a83398181016040528101906100ae919061021d565b600660009054906101000a900473ffffffffffffffffffffffffffffffffffffffff168073ffffffffffffffffffffffffffffffffffffffff1660808173ffffffffffffffffffffffffffffffffffffffff168152505050600660009054906101000a900473ffffffffffffffffffffffffffffffffffffffff166000806101000a81548173ffffffffffffffffffffffffffffffffffffffff021916908373ffffffffffffffffffffffffffffffffffffffff16021790555033600560006101000a81548173ffffffffffffffffffffffffffffffffffffffff021916908373ffffffffffffffffffffffffffffffffffffffff16021790555080600060146101000a81548167ffffffffffffffff021916908367ffffffffffffffff1602179055505061024a565b600080fd5b600067ffffffffffffffff82169050919050565b6101fa816101dd565b811461020557600080fd5b50565b600081519050610217816101f1565b92915050565b600060208284031215610233576102326101d8565b5b600061024184828501610208565b91505092915050565b6080516109de61026c6000396000818161015101526101a501526109de6000f3fe608060405234801561001057600080fd5b50600436106100625760003560e01c80631fe543e31461006757806340196e931461008357806377a60e05146100b3578063850a040c146100e3578063e0c8628914610113578063e89e106a14610131575b600080fd5b610081600480360381019061007c9190610643565b61014f565b005b61009d6004803603810190610098919061069f565b61020f565b6040516100aa919061078a565b60405180910390f35b6100cd60048036038101906100c891906107ac565b61027a565b6040516100da91906107fb565b60405180910390f35b6100fd60048036038101906100f8919061069f565b6102ab565b60405161010a9190610857565b60405180910390f35b61011b6102de565b60405161012891906107fb565b60405180910390f35b610139610404565b60405161014691906107fb565b60405180910390f35b7f000000000000000000000000000000000000000000000000000000000000000073ffffffffffffffffffffffffffffffffffffffff163373ffffffffffffffffffffffffffffffffffffffff161461020157337f00000000000000000000000000000000000000000000000000000000000000006040517f1cf993f40000000000000000000000000000000000000000000000000000000081526004016101f8929190610872565b60405180910390fd5b61020b828261040a565b5050565b60606002600083815260200190815260200160002080548060200260200160405190810160405280929190818152602001828054801561026e57602002820191906000526020600020905b81548152602001906001019080831161025a575b50505050509050919050565b6002602052816000526040600020818154811061029657600080fd5b90600052602060002001600091509150505481565b60036020528060005260406000206000915054906101000a900473ffffffffffffffffffffffffffffffffffffffff1681565b60008060008054906101000a900473ffffffffffffffffffffffffffffffffffffffff1673ffffffffffffffffffffffffffffffffffffffff16635d3b1d30600754600060149054906101000a900467ffffffffffffffff166003620186a060076040518663ffffffff1660e01b815260040161035f959493929190610913565b6020604051808303816000875af115801561037e573d6000803e3d6000fd5b505050506040513d601f19601f820116820180604052508101906103a2919061097b565b9050336003600083815260200190815260200160002060006101000a81548173ffffffffffffffffffffffffffffffffffffffff021916908373ffffffffffffffffffffffffffffffffffffffff160217905550806004819055508091505090565b60045481565b80600260008481526020019081526020016000209080519060200190610431929190610436565b505050565b828054828255906000526020600020908101928215610472579160200282015b82811115610471578251825591602001919060010190610456565b5b50905061047f9190610483565b5090565b5b8082111561049c576000816000905550600101610484565b5090565b6000604051905090565b600080fd5b600080fd5b6000819050919050565b6104c7816104b4565b81146104d257600080fd5b50565b6000813590506104e4816104be565b92915050565b600080fd5b6000601f19601f8301169050919050565b7f4e487b7100000000000000000000000000000000000000000000000000000000600052604160045260246000fd5b610538826104ef565b810181811067ffffffffffffffff8211171561055757610556610500565b5b80604052505050565b600061056a6104a0565b9050610576828261052f565b919050565b600067ffffffffffffffff82111561059657610595610500565b5b602082029050602081019050919050565b600080fd5b60006105bf6105ba8461057b565b610560565b905080838252602082019050602084028301858111156105e2576105e16105a7565b5b835b8181101561060b57806105f788826104d5565b8452602084019350506020810190506105e4565b5050509392505050565b600082601f83011261062a576106296104ea565b5b813561063a8482602086016105ac565b91505092915050565b6000806040838503121561065a576106596104aa565b5b6000610668858286016104d5565b925050602083013567ffffffffffffffff811115610689576106886104af565b5b61069585828601610615565b9150509250929050565b6000602082840312156106b5576106b46104aa565b5b60006106c3848285016104d5565b91505092915050565b600081519050919050565b600082825260208201905092915050565b6000819050602082019050919050565b610701816104b4565b82525050565b600061071383836106f8565b60208301905092915050565b6000602082019050919050565b6000610737826106cc565b61074181856106d7565b935061074c836106e8565b8060005b8381101561077d5781516107648882610707565b975061076f8361071f565b925050600181019050610750565b5085935050505092915050565b600060208201905081810360008301526107a4818461072c565b905092915050565b600080604083850312156107c3576107c26104aa565b5b60006107d1858286016104d5565b92505060206107e2858286016104d5565b9150509250929050565b6107f5816104b4565b82525050565b600060208201905061081060008301846107ec565b92915050565b600073ffffffffffffffffffffffffffffffffffffffff82169050919050565b600061084182610816565b9050919050565b61085181610836565b82525050565b600060208201905061086c6000830184610848565b92915050565b60006040820190506108876000830185610848565b6108946020830184610848565b9392505050565b6000819050919050565b6108ae8161089b565b82525050565b600067ffffffffffffffff82169050919050565b6108d1816108b4565b82525050565b600061ffff82169050919050565b6108ee816108d7565b82525050565b600063ffffffff82169050919050565b61090d816108f4565b82525050565b600060a08201905061092860008301886108a5565b61093560208301876108c8565b61094260408301866108e5565b61094f6060830185610904565b61095c6080830184610904565b9695505050505050565b600081519050610975816104be565b92915050565b600060208284031215610991576109906104aa565b5b600061099f84828501610966565b9150509291505056fea2646970667358221220d8099ea3c8b76d06950cafd77ec81a1e2ef1783d55a2c22dbdb04906f099b30864736f6c63430008170033",
  "immutableReferences": {
    "556": [
      {
        "length": 32,
        "start": 337
      },
      {
        "length": 32,
        "start": 421
      }
    ]
  },
  "source": "// SPDX-License-Identifier: GPL-3.0\n// // // // // // // // // // // // // // // // // // // // // // // // // // // // // // // // // // // // // // // // // // // // // // // // // // // // // // // // // // // // //\n//\n//      MMWKd:..                                                                                    ..:dKWMM\n//      MKl.                                                                                            .lKW\n//      O'       ..''''''''''''.     .''''''.     .'''''.      .''''''''''''''.     .''''''''''''..       'O\n//      '     .ckKNNWNWWWWWWWWWk.   .xNWWNWNl    ,0WWWWW0,     lNWWWWWWWWWNWNk'    ;0NNNWWWWWWWWNNKkc.     '\n//           ,OWMMMMMMMMMMMMMMMO.   .kMMMMMWl    ,KMMMMMK,     lWMMMMMMMMMMM0,    ;KMMMMMMMMMMMMMMMMWO,\n//          .kMMMMMMMMMMMMMMMMMO.   .kMMMMMWl    ,KMMMMMK,     lWMMMMMMMMMM0,    ;KMMMMMMMMMMMMMMMMMMMk.\n//          '0MMMMMMMMMMMMMMMMMO.   .kMMMMMWl    ,KMMMMMK,     lWMMMMMMMMM0,    :KMMMMMMMMMMMMMMMMMMMM0'\n//          '0MMMMMMMMMMMMMMMMMO.   .kMMMMMWl    ,KMMMMMK,     lWMMMMMMMM0,    :KMMMMMMMMMMMMMMMMMMMMM0'\n//          '0MMMMMMMMMMMMMMMMMO.   .kMMMMMWl    ,KMMMMMK,     lWMMMMMMM0,    ;0NNWWMMMMMMMMMMMMMMMMMM0'\n//          '0MMMMMMMMMMMMMMMMMO.   .kMMMMMWl    ,KMMMMMK,     lWMMMMMM0,     .'.',;lkNMMMMMMMMMMMMMMM0'\n//          '0MMMMMMMMMMMMMMMMMO.   .kMMMMMWl    ,KMMMMMK,     lWMMMMMK;              ,kWMMMMMMMMMMMMM0'\n//          '0MMMMMMMMMMMMMMMMMO.   .kMMMMMWl    ,KMMMMMK,     lWMMMMX:    .:oxxdc'    .dWMMMMMMMMMMMM0'\n//          '0MMMMMMMMMMMMMMMMMO.   .kMMMMMWl    ,KMMMMMK,     lWMMMWd.   ,OWMMMMMXl.   '0MMMMMMMMMMMM0'\n//          '0MMMMMMMMMMMMMMMMMO.   .kMMMMMWl    ,KMMMMMK,     lWMMMX;   .kMMMMMMMMK,   .xMMMMMMMMMMMM0'\n//          '0MMMMMMMMMMMMMMMMMO.   .kMMMMMWl    ,KMMMMMK,     lWMMM0'   .OMMMMMMMMX;   .xMMMMMMMMMMMM0'\n//          .OMMMMMMMMMMMMMMMMMO.   .kMMMMMWl    ,KMMMMMK,     lWMMMK,    lNMMMMMMWx.   '0MMMMMMMMMMMMO.\n//           lNMMMMMMMMMMMMMMMMO.   .kMMMMMWl    ,KMMMMMK,     lWMMMWd.   .:x0KKKkc.   .dWMMMMMMMMMMMNl\n//      .    .c0WMMMMMMMMMMMMMMO.   .kMMMMMWo    ,KMMMMMK,     lWMMMMNd.     ....     .xNMMMMMMMMMMW0c.    .\n//      l      .,lddxxxxxxxxxxxc.    :xxxxxd,    .lxxxxxl.     ,dxxxxxd:.            .cdxxxxxxxxddl,.      l\n//      No.                                                                                              .oN\n//      MW0l'                                                                                          'l0WM\n//      MMMWKd;.                                                                                    .;dKWMMM\n//\n// // // // // // // // // // // // // // // // // // // // // // // // // // // // // // // // // // // // // // // // // // // // // // // // // // // // // // // // // // // // //\n//                                                                                                                                                                                  //\n//      @dev            ::              Aron Mauritala Ayuk                                                                                                                                          //\n//      @msg            ::              stereo@iii6.xyz                                                                                                                                   //\n//      @github         ::              @stereoIII6\n//      @twitter        ::              @stereoIII6                                                                                                                                              //\n//                                                                                                                                                                                  //\n// // // // // // // // // // // // // // // // // // // // // // // // // // // // // // // // // // // // // // // // // // // // // // // // // // // // // // // // // // // // //\n//                                                                                                                                                                                  //\n//      @dev            ::              Juan Xavier Valverde                                                                                                                                    //\n//      @msg            ::              juanxavier@iii6.xyz                                                                                                                               //\n//      @twitter        ::              @JuanXavier                                                                                                                                             //\n//      @github         ::              @JuanXavier                                                                                                                                             //\n//                                                                                                                                                                                  //                                                                                                                                                                                 //\n// // // // // // // // // // // // // // // // // // // // // // // // // // // // // // // // // // // // // // // // // // // // // // // // // // // // // // // // // // // // //\n//  *   *   *   *   *   *   *   *   *   *   *   *   *   *   *   *   *   *   *   *   *   *   *   *   *   *   *   *   *   *   *   *   *   *   *   *   *   *   *   *   *   *   *   *   //\n// // // // // // // // // // // // // // // // // // // // // // // // // // // // // // // // // // // // // // // // // // // // // // // // // // // // // // // // // // // // //\n//                                                                                                                                                                                  //\n//      @company        ::              Fractio Holding                                                                                                                                                                       //\n//      @title          ::              iii6 Price Consumer                                                                                                                            //\n//      @description    ::              Fractio Holding Price Oracle Contract Holds VRF Consumers and Key Hashes for all VRF Compatible Chains                                                                                                                         //\n//      @version        ::              0.0.1                                                                                                                                       //\n//      @purpose        ::              Multinet Oracle Price Feed                                                                                                           //\n//                                                                                                                                                                                  //\n//                                                                                                                                                                                  //\n//                                                                                                                                                                                  //\n//                                                                                                                                                                                  //\n//                                                                                                                                                                                  //\n// // // // // // // // // // // // // // // // // // // // // // // // // // // // // // // // // // // // // // // // // // // // // // // // // // // // // // // // // // // // //\n//  *   *   *   *   *   *   *   *   *   *   *   *   *   *   *   *   *   *   *   *   *   *   *   *   *   *   *   *   *   *   *   *   *   *   *   *   *   *   *   *   *   *   *   *   //\n// // // // // // // // // // // // // // // // // // // // // // // // // // // // // // // // // // // // // // // // // // // // // // // // // // // // // // // // // // // // //\n\npragma solidity ^0.8.7;\n\nimport \"@chainlink/contracts/src/v0.8/interfaces/LinkTokenInterface.sol\";\nimport \"@chainlink/contracts/src/v0.8/interfaces/VRFCoordinatorV2Interface.sol\";\nimport \"@chainlink/contracts/src/v0.8/VRFConsumerBaseV2.sol\";\nimport \"../Misc/iii6Logs.sol\";\n\n/**\n * @dev With the select contract on line: 721 ... you can deploy automatically by deploying the selectVRF {} contract\n * you may also deploy the contracts manually but have to chose the right one for each network in this case\n */\n\n// \n// \n// \n// \n// \n// \ncontract iii6VRFEth is VRFConsumerBaseV2 {\n    VRFCoordinatorV2Interface COORDINATOR;\n\n    // Your subscription ID.\n    uint64 s_subscriptionId;\n    uint256 net;\n\n    uint32 constant callbackGasLimit = 100000;\n    uint16 constant requestConfirmations = 3;\n    uint32 constant numWords = 7;\n\n    mapping(uint256 => uint256[]) public s_requestIdToRandomWords;\n    mapping(uint256 => address) public s_requestIdToAddress;\n    uint256 public s_requestId;\n    address s_owner;\n\n    address vrfCoordinator = 0x271682DEB8C4E0901D1a1550aD2e64D568E69909;\n    bytes32 keyHash =\n        0x9fe0eebf5e446e3c998ec9bb19951541aee00bb90ea201ae456421a2ded86805;\n\n    constructor(uint64 subscriptionId) VRFConsumerBaseV2(vrfCoordinator) {\n        COORDINATOR = VRFCoordinatorV2Interface(vrfCoordinator);\n        s_owner = msg.sender;\n        s_subscriptionId = subscriptionId;\n    }\n\n    function randy(uint256 _rid) external view returns (uint256[] memory) {\n        return s_requestIdToRandomWords[_rid];\n    }\n\n    // Assumes the subscription is funded sufficiently.\n    function requestRandomWords() external returns (uint256) {\n        uint256 requestId = COORDINATOR.requestRandomWords(\n            keyHash,\n            s_subscriptionId,\n            requestConfirmations,\n            callbackGasLimit,\n            numWords\n        );\n        s_requestIdToAddress[requestId] = msg.sender;\n\n        // Store the latest requestId for this example.\n        s_requestId = requestId;\n\n        // Return the requestId to the requester.\n        return requestId;\n    }\n\n    function fulfillRandomWords(uint256 requestId, uint256[] memory randomWords)\n        internal\n        override\n    {\n        // You can return the value to the requester,\n        // but this example simply stores it.\n        s_requestIdToRandomWords[requestId] = randomWords;\n    }\n}\n\n// \n// \n// \n// \n// \n// \ncontract iii6VRFGoerli is VRFConsumerBaseV2 {\n    VRFCoordinatorV2Interface COORDINATOR;\n\n    // Your subscription ID.\n    uint64 s_subscriptionId;\n    uint256 net;\n\n    uint32 constant callbackGasLimit = 100000;\n    uint16 constant requestConfirmations = 3;\n    uint32 constant numWords = 7;\n\n    mapping(uint256 => uint256[]) public s_requestIdToRandomWords;\n    mapping(uint256 => address) public s_requestIdToAddress;\n    uint256 public s_requestId;\n    address s_owner;\n\n    address vrfCoordinator = 0x2Ca8E0C643bDe4C2E08ab1fA0da3401AdAD7734D;\n    bytes32 keyHash =\n        0x79d3d8832d904592c0bf9818b621522c988bb8b0c05cdc3b15aea1b6e8db0c15;\n\n    constructor(uint64 subscriptionId) VRFConsumerBaseV2(vrfCoordinator) {\n        COORDINATOR = VRFCoordinatorV2Interface(vrfCoordinator);\n        s_owner = msg.sender;\n        s_subscriptionId = subscriptionId;\n    }\n\n    function randy(uint256 _rid) external view returns (uint256[] memory) {\n        return s_requestIdToRandomWords[_rid];\n    }\n\n    // Assumes the subscription is funded sufficiently.\n    function requestRandomWords() external returns (uint256) {\n        uint256 requestId = COORDINATOR.requestRandomWords(\n            keyHash,\n            s_subscriptionId,\n            requestConfirmations,\n            callbackGasLimit,\n            numWords\n        );\n        s_requestIdToAddress[requestId] = msg.sender;\n\n        // Store the latest requestId for this example.\n        s_requestId = requestId;\n\n        // Return the requestId to the requester.\n        return requestId;\n    }\n\n    function fulfillRandomWords(uint256 requestId, uint256[] memory randomWords)\n        internal\n        override\n    {\n        // You can return the value to the requester,\n        // but this example simply stores it.\n        s_requestIdToRandomWords[requestId] = randomWords;\n    }\n}\n\n//  \n//  \n//  \n//  \n//  \n//  \ncontract iii6VRFMumbai is VRFConsumerBaseV2 {\n    VRFCoordinatorV2Interface COORDINATOR;\n\n    // Your subscription ID.\n    uint64 s_subscriptionId;\n    uint256 net;\n\n    uint32 constant callbackGasLimit = 100000;\n    uint16 constant requestConfirmations = 3;\n    uint32 constant numWords = 7;\n\n    mapping(uint256 => uint256[]) public s_requestIdToRandomWords;\n    mapping(uint256 => address) public s_requestIdToAddress;\n    uint256 public s_requestId;\n    address s_owner;\n\n    address vrfCoordinator = 0x7a1BaC17Ccc5b313516C5E16fb24f7659aA5ebed;\n    bytes32 keyHash =\n        0x4b09e658ed251bcafeebbc69400383d49f344ace09b9576fe248bb02c003fe9f;\n\n    constructor(uint64 subscriptionId) VRFConsumerBaseV2(vrfCoordinator) {\n        COORDINATOR = VRFCoordinatorV2Interface(vrfCoordinator);\n        s_owner = msg.sender;\n        s_subscriptionId = subscriptionId;\n    }\n\n    function randy(uint256 _rid) external view returns (uint256[] memory) {\n        return s_requestIdToRandomWords[_rid];\n    }\n\n    // Assumes the subscription is funded sufficiently.\n    function requestRandomWords() external returns (uint256) {\n        uint256 requestId = COORDINATOR.requestRandomWords(\n            keyHash,\n            s_subscriptionId,\n            requestConfirmations,\n            callbackGasLimit,\n            numWords\n        );\n        s_requestIdToAddress[requestId] = msg.sender;\n\n        // Store the latest requestId for this example.\n        s_requestId = requestId;\n\n        // Return the requestId to the requester.\n        return requestId;\n    }\n\n    function fulfillRandomWords(uint256 requestId, uint256[] memory randomWords)\n        internal\n        override\n    {\n        // You can return the value to the requester,\n        // but this example simply stores it.\n        s_requestIdToRandomWords[requestId] = randomWords;\n    }\n}\n\n// \n// \n// \n// \n// \n// \ncontract iii6VRFMatic is VRFConsumerBaseV2 {\n    VRFCoordinatorV2Interface COORDINATOR;\n\n    // Your subscription ID.\n    uint64 s_subscriptionId;\n    uint256 net;\n\n    uint32 constant callbackGasLimit = 100000;\n    uint16 constant requestConfirmations = 3;\n    uint32 constant numWords = 7;\n\n    mapping(uint256 => uint256[]) public s_requestIdToRandomWords;\n    mapping(uint256 => address) public s_requestIdToAddress;\n    uint256 public s_requestId;\n    address s_owner;\n\n    address vrfCoordinator = 0xAE975071Be8F8eE67addBC1A82488F1C24858067;\n    bytes32 keyHash =\n        0xd729dc84e21ae57ffb6be0053bf2b0668aa2aaf300a2a7b2ddf7dc0bb6e875a8;\n\n    constructor(uint64 subscriptionId) VRFConsumerBaseV2(vrfCoordinator) {\n        COORDINATOR = VRFCoordinatorV2Interface(vrfCoordinator);\n        s_owner = msg.sender;\n        s_subscriptionId = subscriptionId;\n    }\n\n    function randy(uint256 _rid) external view returns (uint256[] memory) {\n        return s_requestIdToRandomWords[_rid];\n    }\n\n    // Assumes the subscription is funded sufficiently.\n    function requestRandomWords() external returns (uint256) {\n        uint256 requestId = COORDINATOR.requestRandomWords(\n            keyHash,\n            s_subscriptionId,\n            requestConfirmations,\n            callbackGasLimit,\n            numWords\n        );\n        s_requestIdToAddress[requestId] = msg.sender;\n\n        // Store the latest requestId for this example.\n        s_requestId = requestId;\n\n        // Return the requestId to the requester.\n        return requestId;\n    }\n\n    function fulfillRandomWords(uint256 requestId, uint256[] memory randomWords)\n        internal\n        override\n    {\n        // You can return the value to the requester,\n        // but this example simply stores it.\n        s_requestIdToRandomWords[requestId] = randomWords;\n    }\n}\n\n// \n// \n// \n// \n// \n// \ncontract iii6VRFFantom is VRFConsumerBaseV2 {\n    VRFCoordinatorV2Interface COORDINATOR;\n\n    // Your subscription ID.\n    uint64 s_subscriptionId;\n    uint256 net;\n\n    uint32 constant callbackGasLimit = 100000;\n    uint16 constant requestConfirmations = 3;\n    uint32 constant numWords = 7;\n\n    mapping(uint256 => uint256[]) public s_requestIdToRandomWords;\n    mapping(uint256 => address) public s_requestIdToAddress;\n    uint256 public s_requestId;\n    address s_owner;\n\n    address vrfCoordinator = 0xd5D517aBE5cF79B7e95eC98dB0f0277788aFF634;\n    bytes32 keyHash =\n        0x64ae04e5dba58bc08ba2d53eb33fe95bf71f5002789692fe78fb3778f16121c9;\n\n    constructor(uint64 subscriptionId) VRFConsumerBaseV2(vrfCoordinator) {\n        COORDINATOR = VRFCoordinatorV2Interface(vrfCoordinator);\n        s_owner = msg.sender;\n        s_subscriptionId = subscriptionId;\n    }\n\n    function randy(uint256 _rid) external view returns (uint256[] memory) {\n        return s_requestIdToRandomWords[_rid];\n    }\n\n    // Assumes the subscription is funded sufficiently.\n    function requestRandomWords() external returns (uint256) {\n        uint256 requestId = COORDINATOR.requestRandomWords(\n            keyHash,\n            s_subscriptionId,\n            requestConfirmations,\n            callbackGasLimit,\n            numWords\n        );\n        s_requestIdToAddress[requestId] = msg.sender;\n\n        // Store the latest requestId for this example.\n        s_requestId = requestId;\n\n        // Return the requestId to the requester.\n        return requestId;\n    }\n\n    function fulfillRandomWords(uint256 requestId, uint256[] memory randomWords)\n        internal\n        override\n    {\n        // You can return the value to the requester,\n        // but this example simply stores it.\n        s_requestIdToRandomWords[requestId] = randomWords;\n    }\n}\n\n// \n// \n// \n// \n// \n// \ncontract iii6VRFFantomTest is VRFConsumerBaseV2 {\n    VRFCoordinatorV2Interface COORDINATOR;\n\n    // Your subscription ID.\n    uint64 s_subscriptionId;\n    uint256 net;\n\n    uint32 constant callbackGasLimit = 100000;\n    uint16 constant requestConfirmations = 3;\n    uint32 constant numWords = 7;\n\n    mapping(uint256 => uint256[]) public s_requestIdToRandomWords;\n    mapping(uint256 => address) public s_requestIdToAddress;\n    uint256 public s_requestId;\n    address s_owner;\n\n    address vrfCoordinator = 0xbd13f08b8352A3635218ab9418E340c60d6Eb418;\n    bytes32 keyHash =\n        0x121a143066e0f2f08b620784af77cccb35c6242460b4a8ee251b4b416abaebd4;\n\n    constructor(uint64 subscriptionId) VRFConsumerBaseV2(vrfCoordinator) {\n        COORDINATOR = VRFCoordinatorV2Interface(vrfCoordinator);\n        s_owner = msg.sender;\n        s_subscriptionId = subscriptionId;\n    }\n\n    function randy(uint256 _rid) external view returns (uint256[] memory) {\n        return s_requestIdToRandomWords[_rid];\n    }\n\n    // Assumes the subscription is funded sufficiently.\n    function requestRandomWords() external returns (uint256) {\n        uint256 requestId = COORDINATOR.requestRandomWords(\n            keyHash,\n            s_subscriptionId,\n            requestConfirmations,\n            callbackGasLimit,\n            numWords\n        );\n        s_requestIdToAddress[requestId] = msg.sender;\n\n        // Store the latest requestId for this example.\n        s_requestId = requestId;\n\n        // Return the requestId to the requester.\n        return requestId;\n    }\n\n    function fulfillRandomWords(uint256 requestId, uint256[] memory randomWords)\n        internal\n        override\n    {\n        // You can return the value to the requester,\n        // but this example simply stores it.\n        s_requestIdToRandomWords[requestId] = randomWords;\n    }\n}\n\n// \n// \n// \n// \n// \n// \ncontract iii6VRFAvax is VRFConsumerBaseV2 {\n    VRFCoordinatorV2Interface COORDINATOR;\n\n    // Your subscription ID.\n    uint64 s_subscriptionId;\n    uint256 net;\n\n    uint32 constant callbackGasLimit = 100000;\n    uint16 constant requestConfirmations = 3;\n    uint32 constant numWords = 7;\n\n    mapping(uint256 => uint256[]) public s_requestIdToRandomWords;\n    mapping(uint256 => address) public s_requestIdToAddress;\n    uint256 public s_requestId;\n    address s_owner;\n\n    address vrfCoordinator = 0xd5D517aBE5cF79B7e95eC98dB0f0277788aFF634;\n    bytes32 keyHash =\n        0x06eb0e2ea7cca202fc7c8258397a36f33d88568d2522b37aaa3b14ff6ee1b696;\n\n    constructor(uint64 subscriptionId) VRFConsumerBaseV2(vrfCoordinator) {\n        COORDINATOR = VRFCoordinatorV2Interface(vrfCoordinator);\n        s_owner = msg.sender;\n        s_subscriptionId = subscriptionId;\n    }\n\n    function randy(uint256 _rid) external view returns (uint256[] memory) {\n        return s_requestIdToRandomWords[_rid];\n    }\n\n    // Assumes the subscription is funded sufficiently.\n    function requestRandomWords() external returns (uint256) {\n        uint256 requestId = COORDINATOR.requestRandomWords(\n            keyHash,\n            s_subscriptionId,\n            requestConfirmations,\n            callbackGasLimit,\n            numWords\n        );\n        s_requestIdToAddress[requestId] = msg.sender;\n\n        // Store the latest requestId for this example.\n        s_requestId = requestId;\n\n        // Return the requestId to the requester.\n        return requestId;\n    }\n\n    function fulfillRandomWords(uint256 requestId, uint256[] memory randomWords)\n        internal\n        override\n    {\n        // You can return the value to the requester,\n        // but this example simply stores it.\n        s_requestIdToRandomWords[requestId] = randomWords;\n    }\n}\n\n// \n// \n// \n// \n// \n// \ncontract iii6VRFFuji is VRFConsumerBaseV2 {\n    VRFCoordinatorV2Interface COORDINATOR;\n\n    // Your subscription ID.\n    uint64 s_subscriptionId;\n    uint256 net;\n\n    uint32 constant callbackGasLimit = 100000;\n    uint16 constant requestConfirmations = 3;\n    uint32 constant numWords = 7;\n\n    mapping(uint256 => uint256[]) public s_requestIdToRandomWords;\n    mapping(uint256 => address) public s_requestIdToAddress;\n    uint256 public s_requestId;\n    address s_owner;\n\n    address vrfCoordinator = 0x2eD832Ba664535e5886b75D64C46EB9a228C2610;\n    bytes32 keyHash =\n        0x354d2f95da55398f44b7cff77da56283d9c6c829a4bdf1bbcaf2ad6a4d081f61;\n\n    constructor(uint64 subscriptionId) VRFConsumerBaseV2(vrfCoordinator) {\n        COORDINATOR = VRFCoordinatorV2Interface(vrfCoordinator);\n        s_owner = msg.sender;\n        s_subscriptionId = subscriptionId;\n    }\n\n    function randy(uint256 _rid) external view returns (uint256[] memory) {\n        return s_requestIdToRandomWords[_rid];\n    }\n\n    // Assumes the subscription is funded sufficiently.\n    function requestRandomWords() external returns (uint256) {\n        uint256 requestId = COORDINATOR.requestRandomWords(\n            keyHash,\n            s_subscriptionId,\n            requestConfirmations,\n            callbackGasLimit,\n            numWords\n        );\n        s_requestIdToAddress[requestId] = msg.sender;\n\n        // Store the latest requestId for this example.\n        s_requestId = requestId;\n\n        // Return the requestId to the requester.\n        return requestId;\n    }\n\n    function fulfillRandomWords(uint256 requestId, uint256[] memory randomWords)\n        internal\n        override\n    {\n        // You can return the value to the requester,\n        // but this example simply stores it.\n        s_requestIdToRandomWords[requestId] = randomWords;\n    }\n}\n\n// \n// \n// \n// \n// \n// \ncontract iii6VRFBsc is VRFConsumerBaseV2 {\n    VRFCoordinatorV2Interface COORDINATOR;\n\n    // Your subscription ID.\n    uint64 s_subscriptionId;\n    uint256 net;\n\n    uint32 constant callbackGasLimit = 100000;\n    uint16 constant requestConfirmations = 3;\n    uint32 constant numWords = 7;\n\n    mapping(uint256 => uint256[]) public s_requestIdToRandomWords;\n    mapping(uint256 => address) public s_requestIdToAddress;\n    uint256 public s_requestId;\n    address s_owner;\n\n    address vrfCoordinator = 0xc587d9053cd1118f25F645F9E08BB98c9712A4EE;\n    bytes32 keyHash =\n        0x17cd473250a9a479dc7f234c64332ed4bc8af9e8ded7556aa6e66d83da49f470;\n\n    constructor(uint64 subscriptionId) VRFConsumerBaseV2(vrfCoordinator) {\n        COORDINATOR = VRFCoordinatorV2Interface(vrfCoordinator);\n        s_owner = msg.sender;\n        s_subscriptionId = subscriptionId;\n    }\n\n    function randy(uint256 _rid) external view returns (uint256[] memory) {\n        return s_requestIdToRandomWords[_rid];\n    }\n\n    // Assumes the subscription is funded sufficiently.\n    function requestRandomWords() external returns (uint256) {\n        uint256 requestId = COORDINATOR.requestRandomWords(\n            keyHash,\n            s_subscriptionId,\n            requestConfirmations,\n            callbackGasLimit,\n            numWords\n        );\n        s_requestIdToAddress[requestId] = msg.sender;\n\n        // Store the latest requestId for this example.\n        s_requestId = requestId;\n\n        // Return the requestId to the requester.\n        return requestId;\n    }\n\n    function fulfillRandomWords(uint256 requestId, uint256[] memory randomWords)\n        internal\n        override\n    {\n        // You can return the value to the requester,\n        // but this example simply stores it.\n        s_requestIdToRandomWords[requestId] = randomWords;\n    }\n}\n\n// \n// \n// \n// \n// \n// \ncontract iii6VRFChalen is VRFConsumerBaseV2 {\n    VRFCoordinatorV2Interface COORDINATOR;\n\n    // Your subscription ID.\n    uint64 s_subscriptionId;\n    uint256 net;\n\n    uint32 constant callbackGasLimit = 100000;\n    uint16 constant requestConfirmations = 3;\n    uint32 constant numWords = 7;\n\n    mapping(uint256 => uint256[]) public s_requestIdToRandomWords;\n    mapping(uint256 => address) public s_requestIdToAddress;\n    uint256 public s_requestId;\n    address s_owner;\n\n    address vrfCoordinator = 0x6A2AAd07396B36Fe02a22b33cf443582f682c82f;\n    bytes32 keyHash =\n        0xd4bb89654db74673a187bd804519e65e3f71a52bc55f11da7601a13dcf505314;\n\n    constructor(uint64 subscriptionId) VRFConsumerBaseV2(vrfCoordinator) {\n        COORDINATOR = VRFCoordinatorV2Interface(vrfCoordinator);\n        s_owner = msg.sender;\n        s_subscriptionId = subscriptionId;\n    }\n\n    function randy(uint256 _rid) external view returns (uint256[] memory) {\n        return s_requestIdToRandomWords[_rid];\n    }\n\n    // Assumes the subscription is funded sufficiently.\n    function requestRandomWords() external returns (uint256) {\n        uint256 requestId = COORDINATOR.requestRandomWords(\n            keyHash,\n            s_subscriptionId,\n            requestConfirmations,\n            callbackGasLimit,\n            numWords\n        );\n        s_requestIdToAddress[requestId] = msg.sender;\n\n        // Store the latest requestId for this example.\n        s_requestId = requestId;\n\n        // Return the requestId to the requester.\n        return requestId;\n    }\n\n    function fulfillRandomWords(uint256 requestId, uint256[] memory randomWords)\n        internal\n        override\n    {\n        // You can return the value to the requester,\n        // but this example simply stores it.\n        s_requestIdToRandomWords[requestId] = randomWords;\n    }\n}\n\n// // // // // // // // // // // // // // // // // // // // // // // // // // // // // // // // // // // // // // // // // // // // // // // // // // // // // // // // // // // // //\n//\n//      MMWKd:..                                                                                    ..:dKWMM\n//      MKl.                                                                                            .lKW\n//      O'       ..''''''''''''.     .''''''.     .'''''.      .''''''''''''''.     .''''''''''''..       'O\n//      '     .ckKNNWNWWWWWWWWWk.   .xNWWNWNl    ,0WWWWW0,     lNWWWWWWWWWNWNk'    ;0NNNWWWWWWWWNNKkc.     '\n//           ,OWMMMMMMMMMMMMMMMO.   .kMMMMMWl    ,KMMMMMK,     lWMMMMMMMMMMM0,    ;KMMMMMMMMMMMMMMMMWO,\n//          .kMMMMMMMMMMMMMMMMMO.   .kMMMMMWl    ,KMMMMMK,     lWMMMMMMMMMM0,    ;KMMMMMMMMMMMMMMMMMMMk.\n//          '0MMMMMMMMMMMMMMMMMO.   .kMMMMMWl    ,KMMMMMK,     lWMMMMMMMMM0,    :KMMMMMMMMMMMMMMMMMMMM0'\n//          '0MMMMMMMMMMMMMMMMMO.   .kMMMMMWl    ,KMMMMMK,     lWMMMMMMMM0,    :KMMMMMMMMMMMMMMMMMMMMM0'\n//          '0MMMMMMMMMMMMMMMMMO.   .kMMMMMWl    ,KMMMMMK,     lWMMMMMMM0,    ;0NNWWMMMMMMMMMMMMMMMMMM0'\n//          '0MMMMMMMMMMMMMMMMMO.   .kMMMMMWl    ,KMMMMMK,     lWMMMMMM0,     .'.',;lkNMMMMMMMMMMMMMMM0'\n//          '0MMMMMMMMMMMMMMMMMO.   .kMMMMMWl    ,KMMMMMK,     lWMMMMMK;              ,kWMMMMMMMMMMMMM0'\n//          '0MMMMMMMMMMMMMMMMMO.   .kMMMMMWl    ,KMMMMMK,     lWMMMMX:    .:oxxdc'    .dWMMMMMMMMMMMM0'\n//          '0MMMMMMMMMMMMMMMMMO.   .kMMMMMWl    ,KMMMMMK,     lWMMMWd.   ,OWMMMMMXl.   '0MMMMMMMMMMMM0'\n//          '0MMMMMMMMMMMMMMMMMO.   .kMMMMMWl    ,KMMMMMK,     lWMMMX;   .kMMMMMMMMK,   .xMMMMMMMMMMMM0'\n//          '0MMMMMMMMMMMMMMMMMO.   .kMMMMMWl    ,KMMMMMK,     lWMMM0'   .OMMMMMMMMX;   .xMMMMMMMMMMMM0'\n//          .OMMMMMMMMMMMMMMMMMO.   .kMMMMMWl    ,KMMMMMK,     lWMMMK,    lNMMMMMMWx.   '0MMMMMMMMMMMMO.\n//           lNMMMMMMMMMMMMMMMMO.   .kMMMMMWl    ,KMMMMMK,     lWMMMWd.   .:x0KKKkc.   .dWMMMMMMMMMMMNl\n//      .    .c0WMMMMMMMMMMMMMMO.   .kMMMMMWo    ,KMMMMMK,     lWMMMMNd.     ....     .xNMMMMMMMMMMW0c.    .\n//      l      .,lddxxxxxxxxxxxc.    :xxxxxd,    .lxxxxxl.     ,dxxxxxd:.            .cdxxxxxxxxddl,.      l\n//      No.                                                                                              .oN\n//      MW0l'                                                                                          'l0WM\n//      MMMWKd;.                                                                                    .;dKWMMM\n//\n// // // // // // // // // // // // // // // // // // // // // // // // // // // // // // // // // // // // // // // // // // // // // // // // // // // // // // // // // // // // //\n",
  "sourcePath": "/Users/iii6/Documents/GitHub/iii6v2/WRRRZ/contracts/iii6utils/Oracles/iii6VRFConsumer.sol",
  "compiler": {
    "name": "solc",
    "version": "0.8.23+commit.f704f362.Emscripten.clang"
  },
  "schemaVersion": "3.4.16",
  "updatedAt": "2023-12-11T02:58:18.711Z",
  "networkType": "ethereum",
  "devdoc": {
    "kind": "dev",
    "methods": {},
    "version": 1
  },
  "userdoc": {
    "kind": "user",
    "methods": {},
    "version": 1
  }
}