{
  "contractName": "NFTemp",
  "abi": [
    {
      "inputs": [
        {
          "internalType": "string",
          "name": "_baseHSH",
          "type": "string"
        },
        {
          "internalType": "string",
          "name": "_name",
          "type": "string"
        },
        {
          "internalType": "string",
          "name": "_sym",
          "type": "string"
        },
        {
          "internalType": "uint256",
          "name": "_amnt",
          "type": "uint256"
        },
        {
          "internalType": "uint256",
          "name": "_limit",
          "type": "uint256"
        },
        {
          "internalType": "uint256",
          "name": "_price",
          "type": "uint256"
        }
      ],
      "stateMutability": "nonpayable",
      "type": "constructor"
    },
    {
      "inputs": [
        {
          "internalType": "address",
          "name": "sender",
          "type": "address"
        },
        {
          "internalType": "uint256",
          "name": "tokenId",
          "type": "uint256"
        },
        {
          "internalType": "address",
          "name": "owner",
          "type": "address"
        }
      ],
      "name": "ERC721IncorrectOwner",
      "type": "error"
    },
    {
      "inputs": [
        {
          "internalType": "address",
          "name": "operator",
          "type": "address"
        },
        {
          "internalType": "uint256",
          "name": "tokenId",
          "type": "uint256"
        }
      ],
      "name": "ERC721InsufficientApproval",
      "type": "error"
    },
    {
      "inputs": [
        {
          "internalType": "address",
          "name": "approver",
          "type": "address"
        }
      ],
      "name": "ERC721InvalidApprover",
      "type": "error"
    },
    {
      "inputs": [
        {
          "internalType": "address",
          "name": "operator",
          "type": "address"
        }
      ],
      "name": "ERC721InvalidOperator",
      "type": "error"
    },
    {
      "inputs": [
        {
          "internalType": "address",
          "name": "owner",
          "type": "address"
        }
      ],
      "name": "ERC721InvalidOwner",
      "type": "error"
    },
    {
      "inputs": [
        {
          "internalType": "address",
          "name": "receiver",
          "type": "address"
        }
      ],
      "name": "ERC721InvalidReceiver",
      "type": "error"
    },
    {
      "inputs": [
        {
          "internalType": "address",
          "name": "sender",
          "type": "address"
        }
      ],
      "name": "ERC721InvalidSender",
      "type": "error"
    },
    {
      "inputs": [
        {
          "internalType": "uint256",
          "name": "tokenId",
          "type": "uint256"
        }
      ],
      "name": "ERC721NonexistentToken",
      "type": "error"
    },
    {
      "anonymous": false,
      "inputs": [
        {
          "indexed": true,
          "internalType": "address",
          "name": "owner",
          "type": "address"
        },
        {
          "indexed": true,
          "internalType": "address",
          "name": "approved",
          "type": "address"
        },
        {
          "indexed": true,
          "internalType": "uint256",
          "name": "tokenId",
          "type": "uint256"
        }
      ],
      "name": "Approval",
      "type": "event"
    },
    {
      "anonymous": false,
      "inputs": [
        {
          "indexed": true,
          "internalType": "address",
          "name": "owner",
          "type": "address"
        },
        {
          "indexed": true,
          "internalType": "address",
          "name": "operator",
          "type": "address"
        },
        {
          "indexed": false,
          "internalType": "bool",
          "name": "approved",
          "type": "bool"
        }
      ],
      "name": "ApprovalForAll",
      "type": "event"
    },
    {
      "anonymous": false,
      "inputs": [
        {
          "indexed": true,
          "internalType": "address",
          "name": "from",
          "type": "address"
        },
        {
          "indexed": true,
          "internalType": "address",
          "name": "to",
          "type": "address"
        },
        {
          "indexed": true,
          "internalType": "uint256",
          "name": "tokenId",
          "type": "uint256"
        }
      ],
      "name": "Transfer",
      "type": "event"
    },
    {
      "inputs": [
        {
          "internalType": "uint256",
          "name": "",
          "type": "uint256"
        }
      ],
      "name": "TOKEN_URI",
      "outputs": [
        {
          "internalType": "string",
          "name": "",
          "type": "string"
        }
      ],
      "stateMutability": "view",
      "type": "function"
    },
    {
      "inputs": [
        {
          "internalType": "address",
          "name": "to",
          "type": "address"
        },
        {
          "internalType": "uint256",
          "name": "tokenId",
          "type": "uint256"
        }
      ],
      "name": "approve",
      "outputs": [],
      "stateMutability": "nonpayable",
      "type": "function"
    },
    {
      "inputs": [
        {
          "internalType": "address",
          "name": "owner",
          "type": "address"
        }
      ],
      "name": "balanceOf",
      "outputs": [
        {
          "internalType": "uint256",
          "name": "",
          "type": "uint256"
        }
      ],
      "stateMutability": "view",
      "type": "function"
    },
    {
      "inputs": [
        {
          "internalType": "uint256",
          "name": "tokenId",
          "type": "uint256"
        }
      ],
      "name": "getApproved",
      "outputs": [
        {
          "internalType": "address",
          "name": "",
          "type": "address"
        }
      ],
      "stateMutability": "view",
      "type": "function"
    },
    {
      "inputs": [
        {
          "internalType": "address",
          "name": "owner",
          "type": "address"
        },
        {
          "internalType": "address",
          "name": "operator",
          "type": "address"
        }
      ],
      "name": "isApprovedForAll",
      "outputs": [
        {
          "internalType": "bool",
          "name": "",
          "type": "bool"
        }
      ],
      "stateMutability": "view",
      "type": "function"
    },
    {
      "inputs": [],
      "name": "name",
      "outputs": [
        {
          "internalType": "string",
          "name": "",
          "type": "string"
        }
      ],
      "stateMutability": "view",
      "type": "function"
    },
    {
      "inputs": [
        {
          "internalType": "uint256",
          "name": "tokenId",
          "type": "uint256"
        }
      ],
      "name": "ownerOf",
      "outputs": [
        {
          "internalType": "address",
          "name": "",
          "type": "address"
        }
      ],
      "stateMutability": "view",
      "type": "function"
    },
    {
      "inputs": [
        {
          "internalType": "address",
          "name": "from",
          "type": "address"
        },
        {
          "internalType": "address",
          "name": "to",
          "type": "address"
        },
        {
          "internalType": "uint256",
          "name": "tokenId",
          "type": "uint256"
        }
      ],
      "name": "safeTransferFrom",
      "outputs": [],
      "stateMutability": "nonpayable",
      "type": "function"
    },
    {
      "inputs": [
        {
          "internalType": "address",
          "name": "from",
          "type": "address"
        },
        {
          "internalType": "address",
          "name": "to",
          "type": "address"
        },
        {
          "internalType": "uint256",
          "name": "tokenId",
          "type": "uint256"
        },
        {
          "internalType": "bytes",
          "name": "data",
          "type": "bytes"
        }
      ],
      "name": "safeTransferFrom",
      "outputs": [],
      "stateMutability": "nonpayable",
      "type": "function"
    },
    {
      "inputs": [
        {
          "internalType": "address",
          "name": "operator",
          "type": "address"
        },
        {
          "internalType": "bool",
          "name": "approved",
          "type": "bool"
        }
      ],
      "name": "setApprovalForAll",
      "outputs": [],
      "stateMutability": "nonpayable",
      "type": "function"
    },
    {
      "inputs": [
        {
          "internalType": "bytes4",
          "name": "interfaceId",
          "type": "bytes4"
        }
      ],
      "name": "supportsInterface",
      "outputs": [
        {
          "internalType": "bool",
          "name": "",
          "type": "bool"
        }
      ],
      "stateMutability": "view",
      "type": "function"
    },
    {
      "inputs": [],
      "name": "symbol",
      "outputs": [
        {
          "internalType": "string",
          "name": "",
          "type": "string"
        }
      ],
      "stateMutability": "view",
      "type": "function"
    },
    {
      "inputs": [
        {
          "internalType": "uint256",
          "name": "tokenId",
          "type": "uint256"
        }
      ],
      "name": "tokenURI",
      "outputs": [
        {
          "internalType": "string",
          "name": "",
          "type": "string"
        }
      ],
      "stateMutability": "view",
      "type": "function"
    },
    {
      "inputs": [
        {
          "internalType": "address",
          "name": "from",
          "type": "address"
        },
        {
          "internalType": "address",
          "name": "to",
          "type": "address"
        },
        {
          "internalType": "uint256",
          "name": "tokenId",
          "type": "uint256"
        }
      ],
      "name": "transferFrom",
      "outputs": [],
      "stateMutability": "nonpayable",
      "type": "function"
    },
    {
      "inputs": [
        {
          "internalType": "address",
          "name": "to",
          "type": "address"
        },
        {
          "internalType": "uint256",
          "name": "_tokenId",
          "type": "uint256"
        }
      ],
      "name": "mint",
      "outputs": [],
      "stateMutability": "nonpayable",
      "type": "function"
    }
  ],
  "bytecode": "0x60806040523480156200001157600080fd5b5060405162002a0538038062002a058339818101604052810190620000379190620002d7565b848481600090816200004a919062000611565b5080600190816200005c919062000611565b50505033600660006101000a81548173ffffffffffffffffffffffffffffffffffffffff021916908373ffffffffffffffffffffffffffffffffffffffff16021790555085604051602001620000b3919062000760565b604051602081830303815290604052600d9081620000d2919062000611565b5060016008819055508260098190555081600a8190555080600b8190555065033f506e4400600c819055505050505050506200078a565b6000604051905090565b600080fd5b600080fd5b600080fd5b600080fd5b6000601f19601f8301169050919050565b7f4e487b7100000000000000000000000000000000000000000000000000000000600052604160045260246000fd5b620001728262000127565b810181811067ffffffffffffffff8211171562000194576200019362000138565b5b80604052505050565b6000620001a962000109565b9050620001b7828262000167565b919050565b600067ffffffffffffffff821115620001da57620001d962000138565b5b620001e58262000127565b9050602081019050919050565b60005b8381101562000212578082015181840152602081019050620001f5565b60008484015250505050565b6000620002356200022f84620001bc565b6200019d565b90508281526020810184848401111562000254576200025362000122565b5b62000261848285620001f2565b509392505050565b600082601f8301126200028157620002806200011d565b5b8151620002938482602086016200021e565b91505092915050565b6000819050919050565b620002b1816200029c565b8114620002bd57600080fd5b50565b600081519050620002d181620002a6565b92915050565b60008060008060008060c08789031215620002f757620002f662000113565b5b600087015167ffffffffffffffff81111562000318576200031762000118565b5b6200032689828a0162000269565b965050602087015167ffffffffffffffff8111156200034a576200034962000118565b5b6200035889828a0162000269565b955050604087015167ffffffffffffffff8111156200037c576200037b62000118565b5b6200038a89828a0162000269565b94505060606200039d89828a01620002c0565b9350506080620003b089828a01620002c0565b92505060a0620003c389828a01620002c0565b9150509295509295509295565b600081519050919050565b7f4e487b7100000000000000000000000000000000000000000000000000000000600052602260045260246000fd5b600060028204905060018216806200042357607f821691505b602082108103620004395762000438620003db565b5b50919050565b60008190508160005260206000209050919050565b60006020601f8301049050919050565b600082821b905092915050565b600060088302620004a37fffffffffffffffffffffffffffffffffffffffffffffffffffffffffffffffff8262000464565b620004af868362000464565b95508019841693508086168417925050509392505050565b6000819050919050565b6000620004f2620004ec620004e6846200029c565b620004c7565b6200029c565b9050919050565b6000819050919050565b6200050e83620004d1565b620005266200051d82620004f9565b84845462000471565b825550505050565b600090565b6200053d6200052e565b6200054a81848462000503565b505050565b5b8181101562000572576200056660008262000533565b60018101905062000550565b5050565b601f821115620005c1576200058b816200043f565b620005968462000454565b81016020851015620005a6578190505b620005be620005b58562000454565b8301826200054f565b50505b505050565b600082821c905092915050565b6000620005e660001984600802620005c6565b1980831691505092915050565b6000620006018383620005d3565b9150826002028217905092915050565b6200061c82620003d0565b67ffffffffffffffff81111562000638576200063762000138565b5b6200064482546200040a565b6200065182828562000576565b600060209050601f83116001811462000689576000841562000674578287015190505b620006808582620005f3565b865550620006f0565b601f19841662000699866200043f565b60005b82811015620006c3578489015182556001820191506020850194506020810190506200069c565b86831015620006e35784890151620006df601f891682620005d3565b8355505b6001600288020188555050505b505050505050565b7f68747470733a2f2f697066732e696f2f697066732f0000000000000000000000815250565b600081905092915050565b60006200073682620003d0565b6200074281856200071e565b935062000754818560208601620001f2565b80840191505092915050565b60006200076d82620006f8565b6015820191506200077f828462000729565b915081905092915050565b61226b806200079a6000396000f3fe608060405234801561001057600080fd5b50600436106100f55760003560e01c806342842e0e11610097578063a22cb46511610066578063a22cb46514610296578063b88d4fde146102b2578063c87b56dd146102ce578063e985e9c5146102fe576100f5565b806342842e0e146101fc5780636352211e1461021857806370a082311461024857806395d89b4114610278576100f5565b8063095ea7b3116100d3578063095ea7b31461017857806312d9d57b1461019457806323b872dd146101c457806340c10f19146101e0576100f5565b806301ffc9a7146100fa57806306fdde031461012a578063081812fc14610148575b600080fd5b610114600480360381019061010f9190611761565b61032e565b60405161012191906117a9565b60405180910390f35b610132610410565b60405161013f9190611854565b60405180910390f35b610162600480360381019061015d91906118ac565b6104a2565b60405161016f919061191a565b60405180910390f35b610192600480360381019061018d9190611961565b6104be565b005b6101ae60048036038101906101a991906118ac565b6104d4565b6040516101bb9190611854565b60405180910390f35b6101de60048036038101906101d991906119a1565b610574565b005b6101fa60048036038101906101f59190611961565b610676565b005b610216600480360381019061021191906119a1565b610706565b005b610232600480360381019061022d91906118ac565b610726565b60405161023f919061191a565b60405180910390f35b610262600480360381019061025d91906119f4565b610738565b60405161026f9190611a30565b60405180910390f35b6102806107f2565b60405161028d9190611854565b60405180910390f35b6102b060048036038101906102ab9190611a77565b610884565b005b6102cc60048036038101906102c79190611bec565b61089a565b005b6102e860048036038101906102e391906118ac565b6108b7565b6040516102f59190611854565b60405180910390f35b61031860048036038101906103139190611c6f565b610920565b60405161032591906117a9565b60405180910390f35b60007f80ac58cd000000000000000000000000000000000000000000000000000000007bffffffffffffffffffffffffffffffffffffffffffffffffffffffff1916827bffffffffffffffffffffffffffffffffffffffffffffffffffffffff191614806103f957507f5b5e139f000000000000000000000000000000000000000000000000000000007bffffffffffffffffffffffffffffffffffffffffffffffffffffffff1916827bffffffffffffffffffffffffffffffffffffffffffffffffffffffff1916145b806104095750610408826109b4565b5b9050919050565b60606000805461041f90611cde565b80601f016020809104026020016040519081016040528092919081815260200182805461044b90611cde565b80156104985780601f1061046d57610100808354040283529160200191610498565b820191906000526020600020905b81548152906001019060200180831161047b57829003601f168201915b5050505050905090565b60006104ad82610a1e565b506104b782610aa6565b9050919050565b6104d082826104cb610ae3565b610aeb565b5050565b600e60205280600052604060002060009150905080546104f390611cde565b80601f016020809104026020016040519081016040528092919081815260200182805461051f90611cde565b801561056c5780601f106105415761010080835404028352916020019161056c565b820191906000526020600020905b81548152906001019060200180831161054f57829003601f168201915b505050505081565b600073ffffffffffffffffffffffffffffffffffffffff168273ffffffffffffffffffffffffffffffffffffffff16036105e65760006040517f64a0ae920000000000000000000000000000000000000000000000000000000081526004016105dd919061191a565b60405180910390fd5b60006105fa83836105f5610ae3565b610afd565b90508373ffffffffffffffffffffffffffffffffffffffff168173ffffffffffffffffffffffffffffffffffffffff1614610670578382826040517f64283d7b00000000000000000000000000000000000000000000000000000000815260040161066793929190611d0f565b60405180910390fd5b50505050565b6106808282610d17565b600d61068b82610e10565b60405160200161069c929190611e1a565b604051602081830303815290604052600e600083815260200190815260200160002090816106ca9190611fd5565b50806007600854815481106106e2576106e16120a7565b5b90600052602060002001819055506008600081548092919060010191905055505050565b6107218383836040518060200160405280600081525061089a565b505050565b600061073182610a1e565b9050919050565b60008073ffffffffffffffffffffffffffffffffffffffff168273ffffffffffffffffffffffffffffffffffffffff16036107ab5760006040517f89c62b640000000000000000000000000000000000000000000000000000000081526004016107a2919061191a565b60405180910390fd5b600360008373ffffffffffffffffffffffffffffffffffffffff1673ffffffffffffffffffffffffffffffffffffffff168152602001908152602001600020549050919050565b60606001805461080190611cde565b80601f016020809104026020016040519081016040528092919081815260200182805461082d90611cde565b801561087a5780601f1061084f5761010080835404028352916020019161087a565b820191906000526020600020905b81548152906001019060200180831161085d57829003601f168201915b5050505050905090565b61089661088f610ae3565b8383610ede565b5050565b6108a5848484610574565b6108b18484848461104d565b50505050565b60606108c282610a1e565b5060006108cd611204565b905060008151116108ed5760405180602001604052806000815250610918565b806108f784610e10565b6040516020016109089291906120d6565b6040516020818303038152906040525b915050919050565b6000600560008473ffffffffffffffffffffffffffffffffffffffff1673ffffffffffffffffffffffffffffffffffffffff16815260200190815260200160002060008373ffffffffffffffffffffffffffffffffffffffff1673ffffffffffffffffffffffffffffffffffffffff16815260200190815260200160002060009054906101000a900460ff16905092915050565b60007f01ffc9a7000000000000000000000000000000000000000000000000000000007bffffffffffffffffffffffffffffffffffffffffffffffffffffffff1916827bffffffffffffffffffffffffffffffffffffffffffffffffffffffff1916149050919050565b600080610a2a8361121b565b9050600073ffffffffffffffffffffffffffffffffffffffff168173ffffffffffffffffffffffffffffffffffffffff1603610a9d57826040517f7e273289000000000000000000000000000000000000000000000000000000008152600401610a949190611a30565b60405180910390fd5b80915050919050565b60006004600083815260200190815260200160002060009054906101000a900473ffffffffffffffffffffffffffffffffffffffff169050919050565b600033905090565b610af88383836001611258565b505050565b600080610b098461121b565b9050600073ffffffffffffffffffffffffffffffffffffffff168373ffffffffffffffffffffffffffffffffffffffff1614610b4b57610b4a81848661141d565b5b600073ffffffffffffffffffffffffffffffffffffffff168173ffffffffffffffffffffffffffffffffffffffff1614610bdc57610b8d600085600080611258565b6001600360008373ffffffffffffffffffffffffffffffffffffffff1673ffffffffffffffffffffffffffffffffffffffff168152602001908152602001600020600082825403925050819055505b600073ffffffffffffffffffffffffffffffffffffffff168573ffffffffffffffffffffffffffffffffffffffff1614610c5f576001600360008773ffffffffffffffffffffffffffffffffffffffff1673ffffffffffffffffffffffffffffffffffffffff168152602001908152602001600020600082825401925050819055505b846002600086815260200190815260200160002060006101000a81548173ffffffffffffffffffffffffffffffffffffffff021916908373ffffffffffffffffffffffffffffffffffffffff160217905550838573ffffffffffffffffffffffffffffffffffffffff168273ffffffffffffffffffffffffffffffffffffffff167fddf252ad1be2c89b69c2b068fc378daa952ba7f163c4a11628f55a4df523b3ef60405160405180910390a4809150509392505050565b600073ffffffffffffffffffffffffffffffffffffffff168273ffffffffffffffffffffffffffffffffffffffff1603610d895760006040517f64a0ae92000000000000000000000000000000000000000000000000000000008152600401610d80919061191a565b60405180910390fd5b6000610d9783836000610afd565b9050600073ffffffffffffffffffffffffffffffffffffffff168173ffffffffffffffffffffffffffffffffffffffff1614610e0b5760006040517f73c6ac6e000000000000000000000000000000000000000000000000000000008152600401610e02919061191a565b60405180910390fd5b505050565b606060006001610e1f846114e1565b01905060008167ffffffffffffffff811115610e3e57610e3d611ac1565b5b6040519080825280601f01601f191660200182016040528015610e705781602001600182028036833780820191505090505b509050600082602001820190505b600115610ed3578080600190039150507f3031323334353637383961626364656600000000000000000000000000000000600a86061a8153600a8581610ec757610ec66120fa565b5b04945060008503610e7e575b819350505050919050565b600073ffffffffffffffffffffffffffffffffffffffff168273ffffffffffffffffffffffffffffffffffffffff1603610f4f57816040517f5b08ba18000000000000000000000000000000000000000000000000000000008152600401610f46919061191a565b60405180910390fd5b80600560008573ffffffffffffffffffffffffffffffffffffffff1673ffffffffffffffffffffffffffffffffffffffff16815260200190815260200160002060008473ffffffffffffffffffffffffffffffffffffffff1673ffffffffffffffffffffffffffffffffffffffff16815260200190815260200160002060006101000a81548160ff0219169083151502179055508173ffffffffffffffffffffffffffffffffffffffff168373ffffffffffffffffffffffffffffffffffffffff167f17307eab39ab6107e8899845ad3d59bd9653f200f220920489ca2b5937696c318360405161104091906117a9565b60405180910390a3505050565b60008373ffffffffffffffffffffffffffffffffffffffff163b11156111fe578273ffffffffffffffffffffffffffffffffffffffff1663150b7a02611091610ae3565b8685856040518563ffffffff1660e01b81526004016110b3949392919061217e565b6020604051808303816000875af19250505080156110ef57506040513d601f19601f820116820180604052508101906110ec91906121df565b60015b611173573d806000811461111f576040519150601f19603f3d011682016040523d82523d6000602084013e611124565b606091505b50600081510361116b57836040517f64a0ae92000000000000000000000000000000000000000000000000000000008152600401611162919061191a565b60405180910390fd5b805181602001fd5b63150b7a0260e01b7bffffffffffffffffffffffffffffffffffffffffffffffffffffffff1916817bffffffffffffffffffffffffffffffffffffffffffffffffffffffff1916146111fc57836040517f64a0ae920000000000000000000000000000000000000000000000000000000081526004016111f3919061191a565b60405180910390fd5b505b50505050565b606060405180602001604052806000815250905090565b60006002600083815260200190815260200160002060009054906101000a900473ffffffffffffffffffffffffffffffffffffffff169050919050565b80806112915750600073ffffffffffffffffffffffffffffffffffffffff168273ffffffffffffffffffffffffffffffffffffffff1614155b156113c55760006112a184610a1e565b9050600073ffffffffffffffffffffffffffffffffffffffff168373ffffffffffffffffffffffffffffffffffffffff161415801561130c57508273ffffffffffffffffffffffffffffffffffffffff168173ffffffffffffffffffffffffffffffffffffffff1614155b801561131f575061131d8184610920565b155b1561136157826040517fa9fbf51f000000000000000000000000000000000000000000000000000000008152600401611358919061191a565b60405180910390fd5b81156113c357838573ffffffffffffffffffffffffffffffffffffffff168273ffffffffffffffffffffffffffffffffffffffff167f8c5be1e5ebec7d5bd14f71427d1e84f3dd0314c0f7b2291e5b200ac8c7c3b92560405160405180910390a45b505b836004600085815260200190815260200160002060006101000a81548173ffffffffffffffffffffffffffffffffffffffff021916908373ffffffffffffffffffffffffffffffffffffffff16021790555050505050565b611428838383611634565b6114dc57600073ffffffffffffffffffffffffffffffffffffffff168373ffffffffffffffffffffffffffffffffffffffff160361149d57806040517f7e2732890000000000000000000000000000000000000000000000000000000081526004016114949190611a30565b60405180910390fd5b81816040517f177e802f0000000000000000000000000000000000000000000000000000000081526004016114d392919061220c565b60405180910390fd5b505050565b600080600090507a184f03e93ff9f4daa797ed6e38ed64bf6a1f010000000000000000831061153f577a184f03e93ff9f4daa797ed6e38ed64bf6a1f0100000000000000008381611535576115346120fa565b5b0492506040810190505b6d04ee2d6d415b85acef8100000000831061157c576d04ee2d6d415b85acef81000000008381611572576115716120fa565b5b0492506020810190505b662386f26fc1000083106115ab57662386f26fc1000083816115a1576115a06120fa565b5b0492506010810190505b6305f5e10083106115d4576305f5e10083816115ca576115c96120fa565b5b0492506008810190505b61271083106115f95761271083816115ef576115ee6120fa565b5b0492506004810190505b6064831061161c5760648381611612576116116120fa565b5b0492506002810190505b600a831061162b576001810190505b80915050919050565b60008073ffffffffffffffffffffffffffffffffffffffff168373ffffffffffffffffffffffffffffffffffffffff16141580156116ec57508273ffffffffffffffffffffffffffffffffffffffff168473ffffffffffffffffffffffffffffffffffffffff1614806116ad57506116ac8484610920565b5b806116eb57508273ffffffffffffffffffffffffffffffffffffffff166116d383610aa6565b73ffffffffffffffffffffffffffffffffffffffff16145b5b90509392505050565b6000604051905090565b600080fd5b600080fd5b60007fffffffff0000000000000000000000000000000000000000000000000000000082169050919050565b61173e81611709565b811461174957600080fd5b50565b60008135905061175b81611735565b92915050565b600060208284031215611777576117766116ff565b5b60006117858482850161174c565b91505092915050565b60008115159050919050565b6117a38161178e565b82525050565b60006020820190506117be600083018461179a565b92915050565b600081519050919050565b600082825260208201905092915050565b60005b838110156117fe5780820151818401526020810190506117e3565b60008484015250505050565b6000601f19601f8301169050919050565b6000611826826117c4565b61183081856117cf565b93506118408185602086016117e0565b6118498161180a565b840191505092915050565b6000602082019050818103600083015261186e818461181b565b905092915050565b6000819050919050565b61188981611876565b811461189457600080fd5b50565b6000813590506118a681611880565b92915050565b6000602082840312156118c2576118c16116ff565b5b60006118d084828501611897565b91505092915050565b600073ffffffffffffffffffffffffffffffffffffffff82169050919050565b6000611904826118d9565b9050919050565b611914816118f9565b82525050565b600060208201905061192f600083018461190b565b92915050565b61193e816118f9565b811461194957600080fd5b50565b60008135905061195b81611935565b92915050565b60008060408385031215611978576119776116ff565b5b60006119868582860161194c565b925050602061199785828601611897565b9150509250929050565b6000806000606084860312156119ba576119b96116ff565b5b60006119c88682870161194c565b93505060206119d98682870161194c565b92505060406119ea86828701611897565b9150509250925092565b600060208284031215611a0a57611a096116ff565b5b6000611a188482850161194c565b91505092915050565b611a2a81611876565b82525050565b6000602082019050611a456000830184611a21565b92915050565b611a548161178e565b8114611a5f57600080fd5b50565b600081359050611a7181611a4b565b92915050565b60008060408385031215611a8e57611a8d6116ff565b5b6000611a9c8582860161194c565b9250506020611aad85828601611a62565b9150509250929050565b600080fd5b600080fd5b7f4e487b7100000000000000000000000000000000000000000000000000000000600052604160045260246000fd5b611af98261180a565b810181811067ffffffffffffffff82111715611b1857611b17611ac1565b5b80604052505050565b6000611b2b6116f5565b9050611b378282611af0565b919050565b600067ffffffffffffffff821115611b5757611b56611ac1565b5b611b608261180a565b9050602081019050919050565b82818337600083830152505050565b6000611b8f611b8a84611b3c565b611b21565b905082815260208101848484011115611bab57611baa611abc565b5b611bb6848285611b6d565b509392505050565b600082601f830112611bd357611bd2611ab7565b5b8135611be3848260208601611b7c565b91505092915050565b60008060008060808587031215611c0657611c056116ff565b5b6000611c148782880161194c565b9450506020611c258782880161194c565b9350506040611c3687828801611897565b925050606085013567ffffffffffffffff811115611c5757611c56611704565b5b611c6387828801611bbe565b91505092959194509250565b60008060408385031215611c8657611c856116ff565b5b6000611c948582860161194c565b9250506020611ca58582860161194c565b9150509250929050565b7f4e487b7100000000000000000000000000000000000000000000000000000000600052602260045260246000fd5b60006002820490506001821680611cf657607f821691505b602082108103611d0957611d08611caf565b5b50919050565b6000606082019050611d24600083018661190b565b611d316020830185611a21565b611d3e604083018461190b565b949350505050565b600081905092915050565b60008190508160005260206000209050919050565b60008154611d7381611cde565b611d7d8186611d46565b94506001821660008114611d985760018114611dad57611de0565b60ff1983168652811515820286019350611de0565b611db685611d51565b60005b83811015611dd857815481890152600182019150602081019050611db9565b838801955050505b50505092915050565b6000611df4826117c4565b611dfe8185611d46565b9350611e0e8185602086016117e0565b80840191505092915050565b6000611e268285611d66565b9150611e328284611de9565b91508190509392505050565b60006020601f8301049050919050565b600082821b905092915050565b600060088302611e8b7fffffffffffffffffffffffffffffffffffffffffffffffffffffffffffffffff82611e4e565b611e958683611e4e565b95508019841693508086168417925050509392505050565b6000819050919050565b6000611ed2611ecd611ec884611876565b611ead565b611876565b9050919050565b6000819050919050565b611eec83611eb7565b611f00611ef882611ed9565b848454611e5b565b825550505050565b600090565b611f15611f08565b611f20818484611ee3565b505050565b5b81811015611f4457611f39600082611f0d565b600181019050611f26565b5050565b601f821115611f8957611f5a81611d51565b611f6384611e3e565b81016020851015611f72578190505b611f86611f7e85611e3e565b830182611f25565b50505b505050565b600082821c905092915050565b6000611fac60001984600802611f8e565b1980831691505092915050565b6000611fc58383611f9b565b9150826002028217905092915050565b611fde826117c4565b67ffffffffffffffff811115611ff757611ff6611ac1565b5b6120018254611cde565b61200c828285611f48565b600060209050601f83116001811461203f576000841561202d578287015190505b6120378582611fb9565b86555061209f565b601f19841661204d86611d51565b60005b8281101561207557848901518255600182019150602085019450602081019050612050565b86831015612092578489015161208e601f891682611f9b565b8355505b6001600288020188555050505b505050505050565b7f4e487b7100000000000000000000000000000000000000000000000000000000600052603260045260246000fd5b60006120e28285611de9565b91506120ee8284611de9565b91508190509392505050565b7f4e487b7100000000000000000000000000000000000000000000000000000000600052601260045260246000fd5b600081519050919050565b600082825260208201905092915050565b600061215082612129565b61215a8185612134565b935061216a8185602086016117e0565b6121738161180a565b840191505092915050565b6000608082019050612193600083018761190b565b6121a0602083018661190b565b6121ad6040830185611a21565b81810360608301526121bf8184612145565b905095945050505050565b6000815190506121d981611735565b92915050565b6000602082840312156121f5576121f46116ff565b5b6000612203848285016121ca565b91505092915050565b6000604082019050612221600083018561190b565b61222e6020830184611a21565b939250505056fea26469706673582212208bf1cec2e5470c606359efa726e465ed91431742ab8cf9daa1ef86b89b7332f264736f6c63430008170033",
  "immutableReferences": {},
  "source": "// SPDX-License-Identifier: MIT\npragma solidity ^0.8.20;\n\nimport \"@openzeppelin/contracts/token/ERC721/ERC721.sol\";\n\ncontract NFTemp is ERC721 {\n    address admin;\n    uint[] tokenId;\n    uint t;\n    uint tokenAmount;\n    uint mintLimit;\n    uint tokenPrice;\n    uint digits;\n\n    string BASE_URI;\n\n    mapping(uint => string) public TOKEN_URI;\n\n    constructor(string memory _baseHSH,string memory _name, string memory _sym, uint _amnt, uint _limit, uint _price) ERC721(_name, _sym) {\n        admin = msg.sender;\n        BASE_URI = string.concat(\"https://ipfs.io/ipfs/\", _baseHSH);\n        t = 1;\n        tokenAmount = _amnt;\n        mintLimit = _limit;\n        tokenPrice = _price;\n        digits = 18 ** 10;\n    }\n\n    function mint(address to, uint _tokenId) public {\n        _mint(to, _tokenId);\n        TOKEN_URI[_tokenId] = string.concat(BASE_URI, Strings.toString(_tokenId)); \n        unchecked {\n            tokenId[t] = _tokenId;\n            t++;\n        }\n    }\n}",
  "sourcePath": "/Users/iii6/Documents/GitHub/iii6v2/WRRRZ/contracts/NFTemp.sol",
  "compiler": {
    "name": "solc",
    "version": "0.8.23+commit.f704f362.Emscripten.clang"
  },
  "schemaVersion": "3.4.16",
  "updatedAt": "2023-12-11T02:17:25.106Z",
  "devdoc": {
    "errors": {
      "ERC721IncorrectOwner(address,uint256,address)": [
        {
          "details": "Indicates an error related to the ownership over a particular token. Used in transfers.",
          "params": {
            "owner": "Address of the current owner of a token.",
            "sender": "Address whose tokens are being transferred.",
            "tokenId": "Identifier number of a token."
          }
        }
      ],
      "ERC721InsufficientApproval(address,uint256)": [
        {
          "details": "Indicates a failure with the `operator`s approval. Used in transfers.",
          "params": {
            "operator": "Address that may be allowed to operate on tokens without being their owner.",
            "tokenId": "Identifier number of a token."
          }
        }
      ],
      "ERC721InvalidApprover(address)": [
        {
          "details": "Indicates a failure with the `approver` of a token to be approved. Used in approvals.",
          "params": {
            "approver": "Address initiating an approval operation."
          }
        }
      ],
      "ERC721InvalidOperator(address)": [
        {
          "details": "Indicates a failure with the `operator` to be approved. Used in approvals.",
          "params": {
            "operator": "Address that may be allowed to operate on tokens without being their owner."
          }
        }
      ],
      "ERC721InvalidOwner(address)": [
        {
          "details": "Indicates that an address can't be an owner. For example, `address(0)` is a forbidden owner in EIP-20. Used in balance queries.",
          "params": {
            "owner": "Address of the current owner of a token."
          }
        }
      ],
      "ERC721InvalidReceiver(address)": [
        {
          "details": "Indicates a failure with the token `receiver`. Used in transfers.",
          "params": {
            "receiver": "Address to which tokens are being transferred."
          }
        }
      ],
      "ERC721InvalidSender(address)": [
        {
          "details": "Indicates a failure with the token `sender`. Used in transfers.",
          "params": {
            "sender": "Address whose tokens are being transferred."
          }
        }
      ],
      "ERC721NonexistentToken(uint256)": [
        {
          "details": "Indicates a `tokenId` whose `owner` is the zero address.",
          "params": {
            "tokenId": "Identifier number of a token."
          }
        }
      ]
    },
    "events": {
      "Approval(address,address,uint256)": {
        "details": "Emitted when `owner` enables `approved` to manage the `tokenId` token."
      },
      "ApprovalForAll(address,address,bool)": {
        "details": "Emitted when `owner` enables or disables (`approved`) `operator` to manage all of its assets."
      },
      "Transfer(address,address,uint256)": {
        "details": "Emitted when `tokenId` token is transferred from `from` to `to`."
      }
    },
    "kind": "dev",
    "methods": {
      "approve(address,uint256)": {
        "details": "See {IERC721-approve}."
      },
      "balanceOf(address)": {
        "details": "See {IERC721-balanceOf}."
      },
      "getApproved(uint256)": {
        "details": "See {IERC721-getApproved}."
      },
      "isApprovedForAll(address,address)": {
        "details": "See {IERC721-isApprovedForAll}."
      },
      "name()": {
        "details": "See {IERC721Metadata-name}."
      },
      "ownerOf(uint256)": {
        "details": "See {IERC721-ownerOf}."
      },
      "safeTransferFrom(address,address,uint256)": {
        "details": "See {IERC721-safeTransferFrom}."
      },
      "safeTransferFrom(address,address,uint256,bytes)": {
        "details": "See {IERC721-safeTransferFrom}."
      },
      "setApprovalForAll(address,bool)": {
        "details": "See {IERC721-setApprovalForAll}."
      },
      "supportsInterface(bytes4)": {
        "details": "See {IERC165-supportsInterface}."
      },
      "symbol()": {
        "details": "See {IERC721Metadata-symbol}."
      },
      "tokenURI(uint256)": {
        "details": "See {IERC721Metadata-tokenURI}."
      },
      "transferFrom(address,address,uint256)": {
        "details": "See {IERC721-transferFrom}."
      }
    },
    "version": 1
  },
  "userdoc": {
    "kind": "user",
    "methods": {},
    "version": 1
  }
}